<!DOCTYPE html><html lang="en"><head><meta charset="utf-8"><meta name="viewport" content="width=device-width, initial-scale=1.0"><meta name="generator" content="rustdoc"><meta name="description" content="Source of the Rust file `&#x2F;usr&#x2F;local&#x2F;cargo&#x2F;git&#x2F;checkouts&#x2F;rust-web3-ebc1a09fd5a9a2a2&#x2F;8796c88&#x2F;src&#x2F;api&#x2F;parity.rs`."><meta name="keywords" content="rust, rustlang, rust-lang"><title>parity.rs - source</title><link rel="preload" as="font" type="font/woff2" crossorigin href="../../../SourceSerif4-Regular.ttf.woff2"><link rel="preload" as="font" type="font/woff2" crossorigin href="../../../FiraSans-Regular.woff2"><link rel="preload" as="font" type="font/woff2" crossorigin href="../../../FiraSans-Medium.woff2"><link rel="preload" as="font" type="font/woff2" crossorigin href="../../../SourceCodePro-Regular.ttf.woff2"><link rel="preload" as="font" type="font/woff2" crossorigin href="../../../SourceSerif4-Bold.ttf.woff2"><link rel="preload" as="font" type="font/woff2" crossorigin href="../../../SourceCodePro-Semibold.ttf.woff2"><link rel="stylesheet" type="text/css" href="../../../normalize.css"><link rel="stylesheet" type="text/css" href="../../../rustdoc.css" id="mainThemeStyle"><link rel="stylesheet" type="text/css" href="../../../ayu.css" disabled><link rel="stylesheet" type="text/css" href="../../../dark.css" disabled><link rel="stylesheet" type="text/css" href="../../../light.css" id="themeStyle"><script id="default-settings" ></script><script src="../../../storage.js"></script><script src="../../../crates.js"></script><script defer src="../../../main.js"></script><script defer src="../../../source-script.js"></script><script defer src="../../../source-files.js"></script>
    <noscript><link rel="stylesheet" href="../../../noscript.css"></noscript><link rel="alternate icon" type="image/png" href="../../../favicon-16x16.png"><link rel="alternate icon" type="image/png" href="../../../favicon-32x32.png"><link rel="icon" type="image/svg+xml" href="../../../favicon.svg"></head><body class="rustdoc source"><!--[if lte IE 11]><div class="warning">This old browser is unsupported and will most likely display funky things.</div><![endif]--><nav class="sidebar"><div class="sidebar-menu" role="button">&#9776;</div><a class="sidebar-logo" href="../../../web3/index.html"><div class="logo-container"><img class="rust-logo" src="../../../rust-logo.png" alt="logo"></div>
        </a></nav><main><div class="width-limiter"><div class="sub-container"><a class="sub-logo-container" href="../../../web3/index.html"><img class="rust-logo" src="../../../rust-logo.png" alt="logo"></a><nav class="sub"><div class="theme-picker"><button id="theme-picker" aria-label="Pick another theme!" aria-haspopup="menu" title="themes"><img width="18" height="18" alt="Pick another theme!" src="../../../brush.svg"></button><div id="theme-choices" role="menu"></div></div><form class="search-form"><div class="search-container"><div><select id="crate-search"><option value="All crates">All crates</option></select><input class="search-input" name="search" autocomplete="off" spellcheck="false" placeholder="Click or press ‘S’ to search, ‘?’ for more options…" type="search"></div><button type="button" id="help-button" title="help">?</button><a id="settings-menu" href="../../../settings.html" title="settings"><img width="18" height="18" alt="Change settings" src="../../../wheel.svg"></a></div></form></nav></div><section id="main-content" class="content"><div class="example-wrap"><pre class="line-numbers"><span id="1">  1</span>
<span id="2">  2</span>
<span id="3">  3</span>
<span id="4">  4</span>
<span id="5">  5</span>
<span id="6">  6</span>
<span id="7">  7</span>
<span id="8">  8</span>
<span id="9">  9</span>
<span id="10"> 10</span>
<span id="11"> 11</span>
<span id="12"> 12</span>
<span id="13"> 13</span>
<span id="14"> 14</span>
<span id="15"> 15</span>
<span id="16"> 16</span>
<span id="17"> 17</span>
<span id="18"> 18</span>
<span id="19"> 19</span>
<span id="20"> 20</span>
<span id="21"> 21</span>
<span id="22"> 22</span>
<span id="23"> 23</span>
<span id="24"> 24</span>
<span id="25"> 25</span>
<span id="26"> 26</span>
<span id="27"> 27</span>
<span id="28"> 28</span>
<span id="29"> 29</span>
<span id="30"> 30</span>
<span id="31"> 31</span>
<span id="32"> 32</span>
<span id="33"> 33</span>
<span id="34"> 34</span>
<span id="35"> 35</span>
<span id="36"> 36</span>
<span id="37"> 37</span>
<span id="38"> 38</span>
<span id="39"> 39</span>
<span id="40"> 40</span>
<span id="41"> 41</span>
<span id="42"> 42</span>
<span id="43"> 43</span>
<span id="44"> 44</span>
<span id="45"> 45</span>
<span id="46"> 46</span>
<span id="47"> 47</span>
<span id="48"> 48</span>
<span id="49"> 49</span>
<span id="50"> 50</span>
<span id="51"> 51</span>
<span id="52"> 52</span>
<span id="53"> 53</span>
<span id="54"> 54</span>
<span id="55"> 55</span>
<span id="56"> 56</span>
<span id="57"> 57</span>
<span id="58"> 58</span>
<span id="59"> 59</span>
<span id="60"> 60</span>
<span id="61"> 61</span>
<span id="62"> 62</span>
<span id="63"> 63</span>
<span id="64"> 64</span>
<span id="65"> 65</span>
<span id="66"> 66</span>
<span id="67"> 67</span>
<span id="68"> 68</span>
<span id="69"> 69</span>
<span id="70"> 70</span>
<span id="71"> 71</span>
<span id="72"> 72</span>
<span id="73"> 73</span>
<span id="74"> 74</span>
<span id="75"> 75</span>
<span id="76"> 76</span>
<span id="77"> 77</span>
<span id="78"> 78</span>
<span id="79"> 79</span>
<span id="80"> 80</span>
<span id="81"> 81</span>
<span id="82"> 82</span>
<span id="83"> 83</span>
<span id="84"> 84</span>
<span id="85"> 85</span>
<span id="86"> 86</span>
<span id="87"> 87</span>
<span id="88"> 88</span>
<span id="89"> 89</span>
<span id="90"> 90</span>
<span id="91"> 91</span>
<span id="92"> 92</span>
<span id="93"> 93</span>
<span id="94"> 94</span>
<span id="95"> 95</span>
<span id="96"> 96</span>
<span id="97"> 97</span>
<span id="98"> 98</span>
<span id="99"> 99</span>
<span id="100">100</span>
<span id="101">101</span>
<span id="102">102</span>
<span id="103">103</span>
<span id="104">104</span>
<span id="105">105</span>
<span id="106">106</span>
<span id="107">107</span>
<span id="108">108</span>
<span id="109">109</span>
<span id="110">110</span>
<span id="111">111</span>
<span id="112">112</span>
<span id="113">113</span>
<span id="114">114</span>
<span id="115">115</span>
<span id="116">116</span>
<span id="117">117</span>
<span id="118">118</span>
<span id="119">119</span>
<span id="120">120</span>
<span id="121">121</span>
<span id="122">122</span>
<span id="123">123</span>
<span id="124">124</span>
<span id="125">125</span>
<span id="126">126</span>
<span id="127">127</span>
<span id="128">128</span>
<span id="129">129</span>
<span id="130">130</span>
<span id="131">131</span>
<span id="132">132</span>
<span id="133">133</span>
<span id="134">134</span>
<span id="135">135</span>
<span id="136">136</span>
<span id="137">137</span>
<span id="138">138</span>
<span id="139">139</span>
<span id="140">140</span>
<span id="141">141</span>
<span id="142">142</span>
<span id="143">143</span>
<span id="144">144</span>
<span id="145">145</span>
<span id="146">146</span>
<span id="147">147</span>
<span id="148">148</span>
<span id="149">149</span>
</pre><pre class="rust"><code><span class="kw">use</span> <span class="kw">crate</span>::{
    <span class="ident">api::Namespace</span>,
    <span class="ident">helpers</span>::{<span class="self">self</span>, <span class="ident">CallFuture</span>},
    <span class="ident">rpc::Value</span>,
    <span class="ident">types</span>::{<span class="ident">Bytes</span>, <span class="ident">CallRequest</span>, <span class="ident">ParityPendingTransactionFilter</span>, <span class="ident">Transaction</span>},
    <span class="ident">Transport</span>,
};

<span class="doccomment">/// `Parity` namespace</span>
<span class="attribute">#[<span class="ident">derive</span>(<span class="ident">Debug</span>, <span class="ident">Clone</span>)]</span>
<span class="kw">pub</span> <span class="kw">struct</span> <span class="ident">Parity</span><span class="op">&lt;</span><span class="ident">T</span><span class="op">&gt;</span> {
    <span class="ident">transport</span>: <span class="ident">T</span>,
}

<span class="kw">impl</span><span class="op">&lt;</span><span class="ident">T</span>: <span class="ident">Transport</span><span class="op">&gt;</span> <span class="ident">Namespace</span><span class="op">&lt;</span><span class="ident">T</span><span class="op">&gt;</span> <span class="kw">for</span> <span class="ident">Parity</span><span class="op">&lt;</span><span class="ident">T</span><span class="op">&gt;</span> {
    <span class="kw">fn</span> <span class="ident">new</span>(<span class="ident">transport</span>: <span class="ident">T</span>) -&gt; <span class="self">Self</span>
    <span class="kw">where</span>
        <span class="self">Self</span>: <span class="ident">Sized</span>,
    {
        <span class="ident">Parity</span> { <span class="ident">transport</span> }
    }

    <span class="kw">fn</span> <span class="ident">transport</span>(<span class="kw-2">&amp;</span><span class="self">self</span>) -&gt; <span class="kw-2">&amp;</span><span class="ident">T</span> {
        <span class="kw-2">&amp;</span><span class="self">self</span>.<span class="ident">transport</span>
    }
}

<span class="kw">impl</span><span class="op">&lt;</span><span class="ident">T</span>: <span class="ident">Transport</span><span class="op">&gt;</span> <span class="ident">Parity</span><span class="op">&lt;</span><span class="ident">T</span><span class="op">&gt;</span> {
    <span class="doccomment">/// Sequentially call multiple contract methods in one request without changing the state of the blockchain.</span>
    <span class="kw">pub</span> <span class="kw">fn</span> <span class="ident">call</span>(<span class="kw-2">&amp;</span><span class="self">self</span>, <span class="ident">reqs</span>: <span class="ident">Vec</span><span class="op">&lt;</span><span class="ident">CallRequest</span><span class="op">&gt;</span>) -&gt; <span class="ident">CallFuture</span><span class="op">&lt;</span><span class="ident">Vec</span><span class="op">&lt;</span><span class="ident">Bytes</span><span class="op">&gt;</span>, <span class="ident">T::Out</span><span class="op">&gt;</span> {
        <span class="kw">let</span> <span class="ident">reqs</span> <span class="op">=</span> <span class="ident">helpers::serialize</span>(<span class="kw-2">&amp;</span><span class="ident">reqs</span>);

        <span class="ident">CallFuture::new</span>(<span class="self">self</span>.<span class="ident">transport</span>.<span class="ident">execute</span>(<span class="string">&quot;parity_call&quot;</span>, <span class="macro">vec!</span>[<span class="ident">reqs</span>]))
    }

    <span class="doccomment">/// Get pending transactions</span>
    <span class="doccomment">/// Blocked by https://github.com/openethereum/openethereum/issues/159</span>
    <span class="kw">pub</span> <span class="kw">fn</span> <span class="ident">pending_transactions</span>(
        <span class="kw-2">&amp;</span><span class="self">self</span>,
        <span class="ident">limit</span>: <span class="prelude-ty">Option</span><span class="op">&lt;</span><span class="ident">usize</span><span class="op">&gt;</span>,
        <span class="ident">filter</span>: <span class="prelude-ty">Option</span><span class="op">&lt;</span><span class="ident">ParityPendingTransactionFilter</span><span class="op">&gt;</span>,
    ) -&gt; <span class="ident">CallFuture</span><span class="op">&lt;</span><span class="ident">Vec</span><span class="op">&lt;</span><span class="ident">Transaction</span><span class="op">&gt;</span>, <span class="ident">T::Out</span><span class="op">&gt;</span> {
        <span class="kw">let</span> <span class="ident">limit</span> <span class="op">=</span> <span class="ident">limit</span>.<span class="ident">map</span>(<span class="ident">Value::from</span>);
        <span class="kw">let</span> <span class="ident">filter</span> <span class="op">=</span> <span class="ident">filter</span>.<span class="ident">as_ref</span>().<span class="ident">map</span>(<span class="ident">helpers::serialize</span>);
        <span class="kw">let</span> <span class="ident">params</span> <span class="op">=</span> <span class="kw">match</span> (<span class="ident">limit</span>, <span class="ident">filter</span>) {
            (<span class="ident">l</span>, <span class="prelude-val">Some</span>(<span class="ident">f</span>)) =&gt; <span class="macro">vec!</span>[<span class="ident">l</span>.<span class="ident">unwrap_or</span>(<span class="ident">Value::Null</span>), <span class="ident">f</span>],
            (<span class="prelude-val">Some</span>(<span class="ident">l</span>), <span class="prelude-val">None</span>) =&gt; <span class="macro">vec!</span>[<span class="ident">l</span>],
            <span class="kw">_</span> =&gt; <span class="macro">vec!</span>[],
        };

        <span class="ident">CallFuture::new</span>(<span class="self">self</span>.<span class="ident">transport</span>.<span class="ident">execute</span>(<span class="string">&quot;parity_pendingTransactions&quot;</span>, <span class="ident">params</span>))
    }
}

<span class="attribute">#[<span class="ident">cfg</span>(<span class="ident">test</span>)]</span>
<span class="kw">mod</span> <span class="ident">tests</span> {
    <span class="kw">use</span> <span class="ident"><span class="kw">super</span>::Parity</span>;
    <span class="kw">use</span> <span class="kw">crate</span>::{
        <span class="ident">api::Namespace</span>,
        <span class="ident">rpc::Value</span>,
        <span class="ident">types</span>::{<span class="ident">Address</span>, <span class="ident">CallRequest</span>, <span class="ident">FilterCondition</span>, <span class="ident">ParityPendingTransactionFilter</span>, <span class="ident">Transaction</span>, <span class="ident">U64</span>},
    };
    <span class="kw">use</span> <span class="ident">hex_literal::hex</span>;

    <span class="kw">const</span> <span class="ident">EXAMPLE_PENDING_TX</span>: <span class="kw-2">&amp;</span><span class="ident">str</span> <span class="op">=</span> <span class="string">r#&quot;{
    &quot;blockHash&quot;: null,
    &quot;blockNumber&quot;: null,
    &quot;creates&quot;: null,
    &quot;from&quot;: &quot;0xee3ea02840129123d5397f91be0391283a25bc7d&quot;,
    &quot;gas&quot;: &quot;0x23b58&quot;,
    &quot;gasPrice&quot;: &quot;0xba43b7400&quot;,
    &quot;hash&quot;: &quot;0x160b3c30ab1cf5871083f97ee1cee3901cfba3b0a2258eb337dd20a7e816b36e&quot;,
    &quot;input&quot;: &quot;0x095ea7b3000000000000000000000000bf4ed7b27f1d666546e30d74d50d173d20bca75400000000000000000000000000002643c948210b4bd99244ccd64d5555555555&quot;,
    &quot;condition&quot;: {
    &quot;block&quot;: 1
    },
    &quot;chainId&quot;: 1,
    &quot;nonce&quot;: &quot;0x5&quot;,
    &quot;publicKey&quot;: &quot;0x96157302dade55a1178581333e57d60ffe6fdf5a99607890456a578b4e6b60e335037d61ed58aa4180f9fd747dc50d44a7924aa026acbfb988b5062b629d6c36&quot;,
    &quot;r&quot;: &quot;0x92e8beb19af2bad0511d516a86e77fa73004c0811b2173657a55797bdf8558e1&quot;,
    &quot;raw&quot;: &quot;0xf8aa05850ba43b740083023b5894bb9bc244d798123fde783fcc1c72d3bb8c18941380b844095ea7b3000000000000000000000000bf4ed7b27f1d666546e30d74d50d173d20bca75400000000000000000000000000002643c948210b4bd99244ccd64d555555555526a092e8beb19af2bad0511d516a86e77fa73004c0811b2173657a55797bdf8558e1a062b4d4d125bbcb9c162453bc36ca156537543bb4414d59d1805d37fb63b351b8&quot;,
    &quot;s&quot;: &quot;0x62b4d4d125bbcb9c162453bc36ca156537543bb4414d59d1805d37fb63b351b8&quot;,
    &quot;standardV&quot;: &quot;0x1&quot;,
    &quot;to&quot;: &quot;0xbb9bc244d798123fde783fcc1c72d3bb8c189413&quot;,
    &quot;transactionIndex&quot;: null,
    &quot;v&quot;: &quot;0x26&quot;,
    &quot;value&quot;: &quot;0x0&quot;
}&quot;#</span>;

    <span class="macro">rpc_test!</span>(
        <span class="ident">Parity</span>:<span class="ident">call</span>,
        <span class="macro">vec!</span>[
            <span class="ident">CallRequest</span> {
                <span class="ident">from</span>: <span class="prelude-val">None</span>,
                <span class="ident">to</span>: <span class="prelude-val">Some</span>(<span class="ident">Address::from_low_u64_be</span>(<span class="number">0x123</span>)),
                <span class="ident">gas</span>: <span class="prelude-val">None</span>,
                <span class="ident">gas_price</span>: <span class="prelude-val">None</span>,
                <span class="ident">value</span>: <span class="prelude-val">Some</span>(<span class="number">0x1</span>.<span class="ident">into</span>()),
                <span class="ident">data</span>: <span class="prelude-val">None</span>,
                <span class="ident">transaction_type</span>: <span class="prelude-val">None</span>,
                <span class="ident">access_list</span>: <span class="prelude-val">None</span>,
                <span class="ident">max_fee_per_gas</span>: <span class="prelude-val">None</span>,
                <span class="ident">max_priority_fee_per_gas</span>: <span class="prelude-val">None</span>,
            },
            <span class="ident">CallRequest</span> {
                <span class="ident">from</span>: <span class="prelude-val">Some</span>(<span class="ident">Address::from_low_u64_be</span>(<span class="number">0x321</span>)),
                <span class="ident">to</span>: <span class="prelude-val">Some</span>(<span class="ident">Address::from_low_u64_be</span>(<span class="number">0x123</span>)),
                <span class="ident">gas</span>: <span class="prelude-val">None</span>,
                <span class="ident">gas_price</span>: <span class="prelude-val">None</span>,
                <span class="ident">value</span>: <span class="prelude-val">None</span>,
                <span class="ident">data</span>: <span class="prelude-val">Some</span>(<span class="macro">hex!</span>(<span class="string">&quot;0493&quot;</span>).<span class="ident">into</span>()),
                <span class="ident">transaction_type</span>: <span class="prelude-val">None</span>,
                <span class="ident">access_list</span>: <span class="prelude-val">None</span>,
                <span class="ident">max_fee_per_gas</span>: <span class="prelude-val">None</span>,
                <span class="ident">max_priority_fee_per_gas</span>: <span class="prelude-val">None</span>,
            },
            <span class="ident">CallRequest</span> {
                <span class="ident">from</span>: <span class="prelude-val">None</span>,
                <span class="ident">to</span>: <span class="prelude-val">Some</span>(<span class="ident">Address::from_low_u64_be</span>(<span class="number">0x765</span>)),
                <span class="ident">gas</span>: <span class="prelude-val">None</span>,
                <span class="ident">gas_price</span>: <span class="prelude-val">None</span>,
                <span class="ident">value</span>: <span class="prelude-val">Some</span>(<span class="number">0x5</span>.<span class="ident">into</span>()),
                <span class="ident">data</span>: <span class="prelude-val">Some</span>(<span class="macro">hex!</span>(<span class="string">&quot;0723&quot;</span>).<span class="ident">into</span>()),
                <span class="ident">transaction_type</span>: <span class="prelude-val">None</span>,
                <span class="ident">access_list</span>: <span class="prelude-val">None</span>,
                <span class="ident">max_fee_per_gas</span>: <span class="prelude-val">None</span>,
                <span class="ident">max_priority_fee_per_gas</span>: <span class="prelude-val">None</span>,
            }
        ] =&gt; <span class="string">&quot;parity_call&quot;</span>, <span class="macro">vec!</span>[
            <span class="string">r#&quot;[{&quot;to&quot;:&quot;0x0000000000000000000000000000000000000123&quot;,&quot;value&quot;:&quot;0x1&quot;},{&quot;data&quot;:&quot;0x0493&quot;,&quot;from&quot;:&quot;0x0000000000000000000000000000000000000321&quot;,&quot;to&quot;:&quot;0x0000000000000000000000000000000000000123&quot;},{&quot;data&quot;:&quot;0x0723&quot;,&quot;to&quot;:&quot;0x0000000000000000000000000000000000000765&quot;,&quot;value&quot;:&quot;0x5&quot;}]&quot;#</span>
        ];
        <span class="ident">Value::Array</span>(<span class="macro">vec!</span>[<span class="ident">Value::String</span>(<span class="string">&quot;0x010203&quot;</span>.<span class="ident">into</span>()), <span class="ident">Value::String</span>(<span class="string">&quot;0x7198ab&quot;</span>.<span class="ident">into</span>()), <span class="ident">Value::String</span>(<span class="string">&quot;0xde763f&quot;</span>.<span class="ident">into</span>())]) =&gt; <span class="macro">vec!</span>[<span class="macro">hex!</span>(<span class="string">&quot;010203&quot;</span>).<span class="ident">into</span>(), <span class="macro">hex!</span>(<span class="string">&quot;7198ab&quot;</span>).<span class="ident">into</span>(), <span class="macro">hex!</span>(<span class="string">&quot;de763f&quot;</span>).<span class="ident">into</span>()]
    );

    <span class="macro">rpc_test!</span>(
        <span class="ident">Parity</span>:<span class="ident">pending_transactions</span>,
        <span class="number">1</span>,
        <span class="ident">ParityPendingTransactionFilter::builder</span>()
            .<span class="ident">from</span>(<span class="ident">Address::from_low_u64_be</span>(<span class="number">0x32</span>))
            .<span class="ident">gas</span>(<span class="ident">U64::from</span>(<span class="number">100_000</span>))
            .<span class="ident">gas_price</span>(<span class="ident">FilterCondition::GreaterThan</span>(<span class="ident">U64::from</span>(<span class="number">100_000_000_000_u64</span>)))
            .<span class="ident">build</span>()
         =&gt; <span class="string">&quot;parity_pendingTransactions&quot;</span>,
            <span class="macro">vec!</span>[<span class="string">r#&quot;1&quot;#</span>, <span class="string">r#&quot;{&quot;from&quot;:{&quot;eq&quot;:&quot;0x0000000000000000000000000000000000000032&quot;},&quot;gas&quot;:{&quot;eq&quot;:&quot;0x186a0&quot;},&quot;gas_price&quot;:{&quot;gt&quot;:&quot;0x174876e800&quot;}}&quot;#</span>]
        ;
        <span class="ident">Value::Array</span>(<span class="macro">vec!</span>[<span class="ident">::serde_json::from_str</span>(<span class="ident">EXAMPLE_PENDING_TX</span>).<span class="ident">unwrap</span>()])
      =&gt; <span class="macro">vec!</span>[<span class="ident">::serde_json::from_str</span>::<span class="op">&lt;</span><span class="ident">Transaction</span><span class="op">&gt;</span>(<span class="ident">EXAMPLE_PENDING_TX</span>).<span class="ident">unwrap</span>()]
    );
}
</code></pre></div>
</section><section id="search" class="content hidden"></section></div></main><div id="rustdoc-vars" data-root-path="../../../" data-current-crate="web3" data-themes="ayu,dark,light" data-resource-suffix="" data-rustdoc-version="1.59.0 (9d1b2106e 2022-02-23)" ></div>
</body></html>